:020000040800F2
:10000000580F0020D1600008A15A0008A35A000828
:10001000A55A0008A75A0008A95A000800000000C5
:10002000000000000000000000000000AB5A0008C3
:10003000AD5A000800000000AF5A0008B15A00088D
:10004000F9600008FD600008016100080561000812
:10005000096100080D6100081161000815610008C0
:10006000196100081D610008216100082561000870
:10007000296100082D610008316100083561000820
:10008000396100083D6100084161000845610008D0
:10009000496100084D610008516100085561000880
:1000A000596100085D610008616100086561000830
:1000B000696100086D6100087161000875610008E0
:1000C000796100087D610008816100088561000890
:1000D000896100088D61000891610008B55A000827
:1000E00095610008996100089D610008A161000800
:1000F000A5610008A9610008AD610008B1610008B0
:10010000B5610008B9610008BD610008C16100085F
:10011000C5610008C9610008BD5A0008CD6100082A
:10012000D1610008D5610008D9610008DD610008CF
:10013000E1610008E5610008E9610008ED6100087F
:10014000F1610008F5610008F9610008455D0008EB
:10015000FD610008016200080562000809620008EC
:100160000D6200081162000815620008196200089B
:100170001D620008216200082562000800000000DE
:10018000296200082D62000800F5E07002689142C3
:1001900003D343681A44914202D380680028F5D102
:1001A00070471849086880B94FF4805048604FF490
:1001B00080324FF0FF30C86008610420124B8A6023
:1001C0004861C3F8BC01114808600120704701F183
:1001D000080313F0070F0EBF0023C3F1080303F059
:1001E00007031944D21A8161C26042F001034B60D7
:1001F000091D4FF0280C41F802C0024A1369C3617F
:1002000070470000300B0020580900206859883CD6
:100210002DE9F84F84B00646AFF30080F52E1E4D51
:1002200080F00F820B2E31BF10260B36F608F60039
:100230002868F408E04010F0030F4AD0C04300F0F3
:100240000100041905F1280000EBC408E700D8F804
:1002500008607068C008C000B84218BF01F0E2F939
:10026000D6F80890464508BF01F0DCF94E4508BFB6
:1002700001F0D8F97068C008C000B84218BF01F09A
:10028000D1F9C8450AD12868012101FA04F420EA0D
:1002900004042C6010E000BF580900202869814543
:1002A00008D3D9F80C10B14204D1C8F80890C9F8A5
:1002B0000C8001E001F0B6F947F00300311D7060D9
:1002C000301DCA5942F00102C25106F1080800F07F
:1002D00010BFA968B14280F09F83002800F0A2807F
:1002E0004FF0010808FA04F1490000FA04F448420A
:1002F00001430C4060420440641E200B00F01000DB
:10030000C440610901F00801CC40A20802F00402D7
:10031000D440630803F002030818DC401018C4F34B
:10032000400718183818FC40241805F1280000EB85
:10033000C40AE700DAF80890D9F80400C008C00041
:10034000B84218BF01F06EF9D9F808B0D14508BF1E
:1003500001F068F9D94508BF01F064F9D9F8040043
:10036000C008C000B84218BF01F05CF9DA4506D1F8
:10037000286808FA04F420EA04042C600DE02969D6
:100380008B4508D3DBF80C00484504D1CAF808B007
:10039000CBF80CA001E001F045F9BF1B46F00300CB
:1003A00009F10402C9F8040047F00101915109EB79
:1003B00006020192D751AC684FEAD40ABAF11F0F76
:1003C00088BF01F02FF934B3CDF800A005F1280063
:1003D0006E6900EBCA0AD346102C38BF01F022F92F
:1003E0002968009821FA00F2D30704D408FA00F033
:1003F0000843286007E0DAF80800296988422CBF22
:10040000834601F00FF9CAF80860CBF80C60C6F813
:1004100008B0C6F80CA0AF6009F10808019868613F
:1004200000F067BE6868002800F01783414208406A
:10043000401E010B01F01001C840420902F0080201
:10044000D040830803F00403D840440804F00204B9
:100450005118E0405918C0F34007611805F5987825
:100460007918F840401858F820104868C008C000B3
:100470008A46A0EB060B08E001464868C008C000A9
:10048000801B58453CBF83468A4608690028F3D143
:1004900049690029F1D128698245C0F0CF80DAF896
:1004A0000410C90806EB0B09C900494518BF01F043
:1004B000B9F80AEB06008245019080F0BF80DAF8B7
:1004C0000C40DAF8187054450DD0DAF808002969A4
:1004D000884223D3C268524504BFA16851451DD14B
:1004E000C460A0601CE00AF114010C6834B90AF180
:1004F00010010C68A4B101E011460C6804F114026B
:100500001068002802BF04F1100210680028F3D11F
:100510002869814202D300220A6001E001F082F8DA
:10052000002F34D0DAF81C0008EB800001688A45FF
:1005300009D1046094B9DAF81C006968012282408C
:100540009143696023E02869874205D339695145A1
:1005500014BF7C613C6101E001F064F8BCB1296921
:100560008C4212D3A761DAF8100028B1884226BF66
:100570002061846101F056F8DAF8140038B1296975
:10058000884202D36061846101E001F04BF8BBF165
:10059000100F0ED249F003000AF10401CAF804005A
:1005A0000AF1040051F8092042F0010240F8092044
:1005B0003EE046F003010AF10402CAF804104BF0D1
:1005C00001009051019941F80BB0A8680090C4084F
:1005D0001F2C88BF01F026F8009828B305F12800E9
:1005E00000996F6900EBC408C146102938BF01F0BB
:1005F00019F8286820FA04F1CA0705D4012101FA84
:1006000004F404432C6007E0D8F808002969884204
:100610002CBF814601F006F8C8F80870C9F80C70C4
:10062000C7F80890C7F80C80C5F808B00198686151
:100630001AF1080800F0F08100F05BBD00F0F2FF55
:10064000EAE116F1400F28BF4FF0FF3680F0E48159
:100650000B36F6086B68F600002B00F0DD810027F2
:10066000300AC6F1000908BF002423D0B0F5803F4E
:1006700028BF1F241ED2A0F58071090C01F00801CB
:100680008840A0F58052120C02F004029040A0F5C0
:100690008044240CC1F10E0104F00204891A091BE4
:1006A000A04001EBD031C81D26FA00F404F001048B
:1006B00004EB410405F5987858F8240030B31F2C5A
:1006C0000FBFB4464FEA540CCCF1190C06FA0CFCDF
:1006D000BE46494601E04FEA4C0C4268D208D200BF
:1006E000921B8A4202D2110007460CD04269103098
:1006F0004FEADC7950F82900002A1CBF8242964656
:100700000028E8D170468946A8BBB7BB012101FA91
:1007100004F4640060420443234000F07D815842A9
:1007200003405B1E180B00F01000C340590901F094
:100730000801CB409A0802F00402D3405C0804F0A0
:1007400002040818E3401018C3F3400C201860445A
:1007500023FA0CF31B1858F823000CE008464168F4
:10076000C908C900891B49453CBF8946074601693C
:100770000029F3D140690028F1D1002F00F04C810D
:10078000A868801B814580F0478129698F42FFF46A
:1007900055AF7868C008C00006EB0901884218BF51
:1007A00000F040FF07EB060B5F45BFF447AFFC6866
:1007B000D7F818A0BC420CD0B8682969884223D366
:1007C000C268BA4204BFA168B9421DD1C460A0602A
:1007D0001CE007F114010C6834B907F110010C6832
:1007E000A4B101E011460C6804F11402106800285D
:1007F00002BF04F1100210680028F3D12869814279
:1008000002D300220A6001E000F00CFFBAF1000FF1
:1008100034D0F86908EB800001688F4208D1046089
:10082000A4B9F8696968012282409143696025E0B2
:100830002869824508D3DAF81010B94214BFCAF803
:100840001440CAF8104001E000F0ECFEB4B1296990
:100850008C4211D3C4F818A0386928B1884226BF49
:100860002061846100F0DEFE786938B12969884230
:1008700002D36061846101E000F0D4FEB9F1100F91
:100880000CD2B14449F00300391D7860381D51F88D
:10089000092042F0010240F80920B9E046F00301C6
:1008A0003A1D796049F0010090514FEAD9004BF8A8
:1008B00009901F2822D805F1280101EBC0042968FE
:1008C00021FA00F2D307A04605D4012202FA00F073
:1008D0000843286006E0A068296988422CBF80464A
:1008E00000F0A0FEC4F808B007F10800C8F80CB08A
:1008F00040F8068007F10C018C5189E05FEA19206D
:1009000008BF002123D0B0F5803F28BF1F211ED291
:10091000A0F58072120C02F008029040A0F5805100
:10092000090C01F004018840A0F580431B0CC2F1C2
:100930000E0203F00203521AD21A984002EBD03290
:10094000D01D29FA00F101F0010101EB420107F18C
:100950001403CBF81C1000229A5107F1100308EB86
:1009600081009A516A6822FA01F3DC0711D401234D
:1009700003FA01F111436960C0F800B0CBF8180028
:1009800007F1080107F10C0040F806B041F806B085
:100990003EE002681F291DBF4908C1F1190109FA8B
:1009A00001F1494600E002465068C008C0004845D1
:1009B00018D002F11003C80F03EB80034900186838
:1009C0000028F0D12869834220D3C3F800B007F192
:1009D0000C01CBF8182041F806B007F1080040F8E8
:1009E00006B015E0296990688A4228BF88420DD375
:1009F000C0F80CB007F10801C2F808B0885107F13F
:100A00000C0082510022CBF8182001E000F00AFE11
:100A100017F1080840F06D83A868B0421DD3811B10
:100A20006A6910290AD390196861A96041F001032D
:100A30004360415046F0030656600BE00021A96078
:100A40006961131D40F003015160111D1C5844F0F1
:100A500001040C5002F108084BE3E8688642C0F03C
:100A60003883DFF8B89BD9F8000008B9FFF799FB85
:100A7000D9F8081088192F30491E20EA01018E424A
:100A800080F0358305F5D877B86838B13A688918A9
:100A90008A4280F02C838842C0F0298300F0E2FD76
:100AA00000281CBFD0F8008010F1010F00F01F8358
:100AB00039687A68414439608A4238BF7960AC69E4
:100AC00004BB296909B1884200D22861002138613C
:100AD000C7F81480F9614FF0FF31D9F800206A623D
:100AE000296205F128020021D260926002F1080417
:100AF00054611461891C10321F29F5D9A8F128020C
:100B000001461DE005F5E0710A46814600E0926865
:100B1000D2B11068536803449945F8D1107B03079C
:100B200012D413689C420FD3D2F804C063449C4291
:100B30000AD2C444C2F804C02146E86808EB0002A7
:100B40002846FFF744FBC1E22869814538BFC5F854
:100B5000109009EB080000E08968002900F0BD81D1
:100B60000A688242F8D1087B020700F1B681086862
:100B7000C1F800904A6842444A6009F1080111F046
:100B8000070F08BFCDF8049006D0C1F1080101F0AD
:100B9000070109EB0102019200F1080111F0070FB2
:100BA00004D0C1F1080101F0070108448046019812
:100BB000A8EB00018419A1EB060B274646F00306BB
:100BC0004660474528BF00F02DFD98F80400C10796
:100BD00058BF00F027FDBBF1100F38BF00F022FD19
:100BE000A869804508D1E9688B44C5F80CB0AF61AD
:100BF0004BF0010078606CE1686980450AD1A96812
:100C00008B44C5F808B06F614BF00100786047F87D
:100C10000BB05EE1D8F8040000F00301012940F0B8
:100C2000B880C008C000C1081F29039040D8D8F878
:100C300008200092D8F80C600291B04508BF00F07F
:100C4000F1FC0098804508BF00F0ECFCD8F80400E7
:100C50000299C008C000B0EBC10F18BF00F0E2FC61
:100C60000299009A05F1280000EBC100824208D0E9
:100C700011462A699142C0F08780CA68424540F017
:100C8000838000998E4206D102982A68012383400E
:100C90009A432A607AE0864205D029698E4273D34E
:100CA000B068404570D10098C6600099B1606DE0B1
:100CB000D8F818000090D8F80C6046450DD0D8F848
:100CC00008002969884223D3C268424504BFB1683D
:100CD00041451DD1C660B0601CE008F114010E68EA
:100CE00036B908F110010E68A6B101E011460E6890
:100CF00006F114021068002802BF06F11002106805
:100D00000028F3D12869814202D300220A6001E061
:100D100000F088FC0098002838D0D8F81C0005F5B1
:100D2000987101EB80000168884509D106609EB981
:100D3000D8F81C006968012282409143696025E06F
:100D400000982969884205D30169414514BF46616D
:100D5000066101E000F066FCC6B129698E4213D33A
:100D60000098B061D8F8100028B1884226BF3061E1
:100D7000866100F057FCD8F8140038B12969884220
:100D800002D37061866101E000F04CFC0399884455
:100D90008B44D8F8041049084900C8F804104BF0F7
:100DA000010078604FEADB0647F80BB01F2E22D80F
:100DB00005F1280000EBC604A146BBF1100F38BFB7
:100DC00000F030FC286820FA06F1CA0705D401219A
:100DD00001FA06F606432E6006E0A06829698842FB
:100DE0002CBF814600F01EFCA760C9F80C70C7F844
:100DF0000890FC606DE05FEA1B2008BF002123D053
:100E0000B0F5803F28BF1F211ED2A0F58072120CC2
:100E100002F008029040A0F58051090C01F0040195
:100E20008840A0F580431B0CC2F10E0203F00203C0
:100E3000521AD21A984002EBD032D01D2BFA00F190
:100E400001F0010101EB4201F961002305F59872FF
:100E50007B6102EB81003B616A6822FA01F3DE07E5
:100E600007D4012303FA01F1114369600760B861F7
:100E70001DE002681F291DBF4908C1F119010BFAC5
:100E800001F1594600E002465068C008C0005845CC
:100E900010D002F11003C80F03EB8003490018685B
:100EA0000028F0D12869834211D31F60BA61FF6026
:100EB000BC600EE0296990688A4228BF884206D348
:100EC000C7609460B860FA600020B86101E000F08B
:100ED000A9FB019800F108080BE121462846FFF71D
:100EE00053F90168406808440090A0F1270111F00F
:100EF000070000980EBF0021C1F1080101F00701B1
:100F00000844A0F12F0B04F110018B4538BFA34614
:100F10000BF11802002102920191A8F12802494622
:100F20002846FFF754F90BF1080010F0070F18BF1F
:100F300000F078FB1B20CBF8040005F5E07292E886
:100F400009500BF1080181E8095000210BF108005C
:100F5000F961B861009A02980199C7F81090C7F832
:100F60001480072300E0001D491C00F10807974288
:100F70004360F8D30129D8BF00F054FBA34500F02B
:100F8000A580ABEB040B201D221D50F80B10490867
:100F9000490042F80B104BF0010060604FEADB099A
:100FA00044F80BB0B9F11F0F22D805F1280000EB6F
:100FB000C907B846BBF1100F38BF00F033FB2868F3
:100FC00020FA09F1CA0705D4012101FA09F1084301
:100FD000286006E0B868296988422CBF804600F086
:100FE00021FBBC60C8F80C40C4F80880E7606DE0E5
:100FF0005FEA1B2008BF002123D0B0F5803F28BF47
:101000001F211ED2A0F58072120C02F0080290403F
:10101000A0F58051090C01F004018840A0F580433F
:101020001B0CC2F10E0203F00203521AD21A9840AE
:1010300002EBD032D01D2BFA00F101F0010101EBDF
:10104000420105F59872002302EB8100E1616361C2
:1010500023616A6822FA01F3DF0707D4012303FA48
:1010600001F1114369600460A0611DE002681F295D
:101070001DBF4908C1F119010BFA01F1594600E001
:1010800002465068C008C000584510D002F1100355
:10109000C80F03EB8003490018680028F0D12869C5
:1010A000834211D31C60A261E460A4600EE0296950
:1010B00090688A4228BF884206D3C4609460A060CA
:1010C000E2600020A06101E000F0ACFAE86886422E
:1010D0000DD2801BA969E8608A19AA6140F001005D
:1010E000506046F003064E6001F1080801E04FF041
:1010F0000008AFF30080404605B0BDE8F08F00283F
:1011000000D170472DE9F047A0F10805AFF300804A
:10111000DFF80C6531698D42C0F07A82686800F0B2
:101120000302012A00F07482C2084FEAC209C20712
:1011300005EB090839D42C6810F0030F00F06A821F
:10114000604205448D42A144C0F0628270698542CC
:1011500000F0DA80E408202C72D2D5F80CA0AF6839
:10116000554508BF00F05EFABD4208BF00F05AFACC
:101170006868C008C000B0EBC40F18BF00F052FA96
:1011800006F1280000EBC400874205D031698F4288
:1011900053D3FA68AA4250D1BA4540D130680121F0
:1011A00001FA04F420EA04043460454580F03082FA
:1011B000D8F80440E00740F12B82A10700F17C81C0
:1011C000B069804540F0B380F168B5618944C6F8E4
:1011D0000C9049F00100686071698D4202D10020D5
:1011E0007061B060F169494580F01482DFF82C2409
:1011F000106808B9FEF7D5FFB169002900F00A822E
:10120000F068292824BF3046FEF7BEFFF069F16878
:10121000884280F0FF814FF0FF30F061FAE18245B3
:1012200006D03069824508D3DAF80810A94204D103
:10123000C7F80CA0CAF80870B7E700F0F3F9B4E7F4
:10124000EC68AF69AC420BD0A868884222D3C16871
:10125000A94204BFA268AA421CD1C460A0601BE0DE
:1012600005F11402146834B905F1100214689CB138
:1012700001E01A46146804F114031868002802BF3C
:1012800004F1100318680028F3D18A4202D3002128
:10129000116001E000F0C6F9002F86D0E96906F57B
:1012A000987000EB81000268954209D1046020002B
:1012B00011D1E8697168012282409143716074E73D
:1012C0003069874205D33969A94214BF7C613C610A
:1012D00001E000F0A7F9002C3FF467AF31698C42C0
:1012E000ABD3A761286928B1884226BF20618461F9
:1012F00000F098F9686900283FF457AF31698842D7
:101300009BD36061846150E798F8040000F003000B
:1013100003287FF44AAFC6F8089049F00101D8F8D5
:10132000040040084000C8F8040069600AE07069E1
:1013300080450AD1B16875618944C6F8089049F0C2
:101340000100686045F8099064E1E408E400A14404
:10135000E408202C3AD2D8F80CA0D8F80870D04570
:1013600008BF00F05FF9B84508BF00F05BF9D8F896
:101370000400C008C000B0EBC40F18BF00F052F961
:1013800006F1280000EBC400874207D031698F4284
:10139000C0F08580FA68424540F08180BA4507D1A7
:1013A0003068012101FA04F420EA0404346078E092
:1013B000824506D03069824571D3DAF8081041457C
:1013C0006DD1C7F80CA0CAF808706AE0D8F80C40D4
:1013D000D8F8187044450DD0D8F808003169884213
:1013E00023D3C268424504BFA16841451DD1C460F2
:1013F000A0601CE008F114010C6834B908F1100178
:101400000C68A4B101E011460C6804F114021068E4
:10141000002802BF04F1100210680028F3D13069DF
:10142000814202D300220A6001E000F0FBF8002FA5
:1014300037D0D8F81C1006F5987000EB81000268D0
:1014400090450AD10460200012D1D8F81C007168C0
:10145000012282409143716023E03069874205D3C5
:101460003969414514BF7C613C6101E000F0DAF864
:10147000BCB131698C4212D3A761D8F8100028B1F1
:10148000884226BF2061846100F0CCF8D8F81400AF
:1014900038B13169884202D36061846101E000F0B3
:1014A000C1F849F00100686045F8099071698D4202
:1014B0000BD1C6F80890ADE064086400C8F8044099
:1014C00049F00100686045F809904FEAD907202FDC
:1014D00022D206F1280000EBC704A046B9F1100F94
:1014E00038BF00F09FF8306820FA07F1CA0705D42A
:1014F000012101FA07F70743376006E0A068316968
:1015000088422CBF804600F08DF8A560C8F80C50CA
:10151000C5F80880EC607DE05FEA192008BF002173
:1015200023D0B0F5803F28BF1F211ED2A0F58072C6
:10153000120C02F008029040A0F58051090C01F055
:1015400004018840A0F580431B0CC2F10E0203F099
:101550000203521AD21A984002EBD032D01D29FA57
:1015600000F101F0010101EB420106F59872002340
:1015700002EB8100E9616B612B61726822FA01F371
:10158000DC0707D4012303FA01F111437160056000
:10159000A8611DE002681F291DBF4908C1F119019A
:1015A00009FA01F1494600E002465068C008C0004F
:1015B000484510D002F11003C80F03EB8003490027
:1015C00018680028F0D13069834211D31D60AA61E8
:1015D000ED60AD600EE0316990688A4228BF8842B4
:1015E00006D3C5609560A860EA600020A86101E0AC
:1015F00000F018F8306A401E30620BD1D6F8C801EE
:1016000000E080680028FCD14FF0FF30306201E03C
:1016100000F008F8AFF30080BDE8F087300B002041
:1016200058090020012000F033B830B4002513E041
:1016300050F8042BD30744BFA9F101039A18091FDE
:10164000042942F8045BFAD213468C0744BF158084
:101650009B1CC90748BF1D7050F8041B0029E7D127
:1016600030BC70470749086808B100207047064839
:10167000C008C00008600549C908C900091A01600E
:10168000704700BF4C0B00205F0F00205811002056
:1016900080B5AFF30080024A11001820ABBEFBE713
:1016A0002600020070B504008AB008BF012028D0CF
:1016B000266804F52E75687820B900212970204627
:1016C00000F0AEFB03206870F16BC8055CBF002121
:1016D0002161206800F0EAFC83B000F014F80EBC31
:1016E000206800F0A3FC2068012100F0E5FC83B035
:1016F00000F009F80EBC206800F056FD012068706B
:1017000000200AB070BD211D6846342200F0D2BF0F
:10171000FEB5064696F8B802012801D10220FEBDAA
:101720000A98099C089D012786F8B8728E462827DA
:1017300017FB0EFE06EB0E0738374FF0000C87F84C
:1017400005C012F0800E02F07F0C87F802C03B70DB
:10175000F44618BF4FF0010C38817970FC7187F89E
:1017600003C03D71029001940095306800F0F6FDD1
:10177000002186F8B812FEBD10B500F027FB01D19C
:10178000022010BD00F027FB00F0F1FE1AE300007C
:10179000F8B50E46282466430644069D06F139072F
:1017A000BA70BB7135B9099C3C714FF0030C87F8D6
:1017B00009C001E002247C72032B089C06F1440E50
:1017C00013D8DFE803F002100C0C012D08BF002A2B
:1017D0000BD1220004D101228EF80D2000E0D2B9F5
:1017E0009EF80D20DAB900237B72079ACEF800200C
:1017F000CEF8044000228EF81820CEF80820397068
:101800008EF8192006F1380102690068BDE8F84039
:10181000D2B200F00FBE9EF80C20002AE3D00223C3
:10182000E2E72DE9FE4F05462C68204600F0A3FCB8
:10183000012840F08F8200F0A4FA002800F08A828C
:1018400000F09FFA800203D52A684FF4001151611D
:1018500000F097FAC00203D52A684FF48011516155
:1018600000F08FFA400103D52A684FF08061516182
:1018700000F087FA800702D52A680221516100F042
:1018800080FA80000FD52A684FF00051516104F5AD
:1018900088600168CA0706D4284600F011FB286852
:1018A000012100F0F6FC00F06CFAC00148D52E686A
:1018B00006F58867396801913A680092009820F02F
:1018C0002E0000900198810709D50198C10744BFF7
:1018D000284600F0F1FA009840F0020000900198CC
:1018E000010724D5009840F00800009001984107B6
:1018F0001AD5A86902280BD12868019901F4C021E2
:10190000B1F5802F0CBF0221012100F0C2FC07E0DD
:10191000E868012804D106F580604EF66021416038
:10192000284600F0D2FA02E0284600F0D2FA0198E8
:10193000810603D5009840F02000009000983860A0
:1019400000F01FFA000705D5284600F0B1FA296813
:101950000820486100F015FA800140F1BB81286839
:1019600000F000FE01944FF0000A00904FF48068F0
:1019700011E00222027006E003703A6822F0804211
:1019800042F000423A600222BA600278284600F033
:101990009BFA0AF1010AA868824580F097810099B4
:1019A0000AF00F00C140CA07F3D501982F6800EB79
:1019B0004A1000F5A0605FFA8AF1026810044FF443
:1019C000007B40F1E380894607EB491707F5A067E4
:1019D0002821B86811FB09F16E18410706F15C0473
:1019E00002D500F0BBF92BE0B868C10506D54FF46D
:1019F0008070B860072100F0B8F910E0B86881067F
:101A000002D52020B8601BE0B86801070BD500F0B4
:101A1000ADF9052161701020B8600821B960494610
:101A200000F0B6F90CE0B868410509D500F0A3F95B
:101A300000F0AEF91020B86008216170C7F8088086
:101A4000B868810506D500F096F900F0A1F9C7F84D
:101A500008B09EE7B868C10738D5286928B1B06CCE
:101A60003969C1F31201401AF0640120607000214D
:101A7000B165B86096F83F00002818BF022818D05A
:101A8000032807D1386840F00050386001212170E8
:101A9000012209E0012812D1207096F8501081F03F
:101AA000010186F8501022784946284600F00CFAC9
:101AB00005E000F060F900F06BF91020B86096F8CE
:101AC000500080F0010086F8500062E7B868810796
:101AD0002ED5F86820F00200F8606078012814BF65
:101AE000052820701FD0062818BF082809D0032811
:101AF00011D0072817D1B06D401CB06504212170AA
:101B000011E0B06D401C0428B06504D30020B0651E
:101B10000421217001E002202070396821F0804109
:101B200041F0004139600220B860494622782DE733
:101B3000B86801060CD500F019F90621B06D401CFB
:101B4000B0656170494600F023F98020B86020E755
:101B5000B868C106FBD596F83F00032806D10020DF
:101B6000B065F96841F00201F9600AE0002818BF89
:101B7000022809D10021B165286928B9032100F0A4
:101B8000F4F8494600F004F91020DFE707EB4117AD
:101B900007F5A067B868420702D500F0DFF8F8E65D
:101BA0002820BA6810FB01F02C18920604F13C03BF
:101BB00004F15C000BD52022BA605A78012A05D1C5
:101BC00000225A700223037000F0DEF8E1E6BA68E2
:101BD000520608D5042084F85D0001225A7000F0F6
:101BE000DAF84020B2E7BA68920502D500F0BEF8F4
:101BF0002BE7BA68D20706D500F0CDF80120B8600F
:101C000084F85D00C5E6BA68120709D50820B860F7
:101C1000FA6842F00202FA6000F0BAF80520EFE735
:101C2000BA68D2060ED50020D861032084F85D0082
:101C30005A78002A01BF1878002801225A7000F053
:101C4000A3F8A1E7BA68120607D500F09DF80620B0
:101C500084F85D008021B9609BE6BA68520509D519
:101C600000F092F81020B860C7F80880082184F8C6
:101C70005D108EE6BA689207FBD5FA6822F0020280
:101C8000FA6094F85D20012A0AD10270DA78022AFB
:101C900018BF032A03D15A7D82F001025A7572E6F9
:101CA000032A18BF042A3FF464AE052A3FF462AE4B
:101CB000062A18BF082AF2D1DA69521CDA61042A0E
:101CC00023BF0022DA610423022355E629684FF07E
:101CD0000070486100F055F8C0063BD5286881695E
:101CE00021F0100181612868016A01F00F06C1F33B
:101CF0000A19C1F343410229044626D1B9F1000F64
:101D000023D0282111FB06F16F18796CE9B14A46FE
:101D100000F014FA786C4844786404EB4610F96CCF
:101D2000894400F5A062C7F84C9010690A4908423E
:101D30000BD0106820F0804040F00040106097F811
:101D4000500080F0010087F850002868816941F058
:101D500010018161BDE8F78F0000F81F0420B86012
:101D6000F96841F00201F96070476170F86840F06D
:101D70000200F8607047F86840F00200F8604946D9
:101D80007047286800F0F2B9F86840F00200F86087
:101D9000286800F0ECBB0020D861FA6842F002022B
:101DA000FA60286800F0E3BB10B500F00FF801D12D
:101DB000022010BD00F00FF800F074F92068012136
:101DC00000F09AFA002084F8B80210BD044694F896
:101DD000B80201287047012084F8B80220687047D3
:101DE00010B5FFF7F3FF01D1022010BDFFF7F3FF9D
:101DF00000F020FCE6E7006800F063BA28225143B7
:101E0000084490F85C007047282251430844C06C95
:101E10007047006800F09CBA006800F08DBA0000BE
:101E200038B586B00446142101A800F04FFC2268A2
:101E3000B2F1A04F3AD100203B4C3C4D0090002223
:101E4000216841F0010121604FF40071206800F029
:101E500001000090009801910292039201A9284686
:101E600000F038FC0022039204924FF4E05002216B
:101E7000019002910A22059201A9284600F02AFC4D
:101E8000606840F08000606000210091002260697D
:101E900040F480406061606900F4804000900098E8
:101EA000432000F029FD432000F043FD07B030BD82
:101EB000D0F8C00200F090BFD0F8C00200F0A0BF80
:101EC000D0F8C00200F0A5BF7047D0F8C00200F003
:101ED00091BFD0F8C00200F08FBF38B5044604F5BA
:101EE0007370017801291CD1114DC5F8C0424560BD
:101EF0004FF0A04028600821A9600020012228613D
:101F00000221E861EA60A9612846FFF7CBFB08B12E
:101F100001F050FA2846FFF77CFF0146204600F00A
:101F200058FF002032BD000030380240000002405F
:101F30004404002080B5D0F8D003FFF735FFBDE89A
:101F4000024069E080B5D0F8D003FFF749FFF6E71B
:101F500010B5D0F8D003FFF75FFF012418B10228B5
:101F600008BF022400E00024204610BD80B5D0F850
:101F7000D003FFF740FFE2E7D0F8D003FFF744BFFC
:101F80003EB5BDF820409DF81C50029401959DF887
:101F900018400094D0F8D003FFF7BAFBBDE83E40EC
:101FA0003AE080B5D0F8D003FFF7E6FBC7E738B5D5
:101FB00084B09DF82C40BDF8285003940295099CEC
:101FC0009DF8205001940095D0F8D003FFF7E0FB76
:101FD00005B0BDE830401FE0D0F8D003FFF70EBFDA
:101FE00080B590F8CC03012804BF084601F0E4F95D
:101FF000C82001F0EBF9002002BDD0F8D00328235F
:102000005943014411F83B0F002814BF4A758A75E3
:102010000020704701F0DAB90146002021B1022901
:1020200001D1012070470220704700000EB418B59E
:1020300004460898012817D1A06B20F48030A063D3
:10204000E168DFF82C020140E160E16821F4401111
:10205000E1600F98012803D1E06840F48010E0604F
:10206000204600F08CF80FE0E06840F04000E060AF
:10207000204600F084F80C990029A16B0CBF41F4B4
:10208000803121F48031A1630699012907D1A1682B
:1020900041F00601A160A16841F02001A16012BCDD
:1020A0005DF810FB816841F0010102E08168490898
:1020B000490081600020704780B5C26822F0C042AC
:1020C0000129C26005D1C16841F00051C1603220D0
:1020D00048E019B9C16841F08041F7E7012002BD2D
:1020E000890141F020010161DFF82415491E04D067
:1020F00002699306FAD4002070470320704710212C
:102100000161DFF80C15491E04D00269D306FAD428
:102110000020704703207047B8B5059C64B9DB1CEC
:1021200007E000EB023751F8045B07F58057641CA9
:102130003D60B4EB930FF4D30020B2BD10B5D21CB8
:10214000002305E000F580545B1C246841F8044B33
:10215000B3EB920FF6D3084610BD01600020704724
:102160004160032001F032F9002002BD01464869B8
:10217000896908407047406900F001007047DFF846
:1021800090241146491E0DD00369002BFAD5016930
:1021900041F001010161521E04D00169CB07FAD45C
:1021A00000207047032070470EB45CB5044604F568
:1021B000606100200860A26B42F40012A26300F08C
:1021C00060F8A06304F58060E16BCA050BD5079940
:1021D000012903D1026842F0040207E0016821F0FE
:1021E0000401016003E0026822F004020260102191
:1021F0002046FFF775FF2046FFF781FF00204FF0D4
:10220000FF36002203E000F04FFA8E60CA600699A4
:102210008842F8D30121204600F06EF8C82001F072
:10222000D5F80020A0616661E06BC1050AD54FF4C6
:1022300000706062DFF8E013DFF8E003A162C4F829
:10224000000108E080216162DFF8D403DFF8D413D5
:10225000A062C4F80011089800F00CF8DFF8C80379
:102260000143A161002056BC5DF810FB0000000096
:10227000BFFFBDFF18B9A06940F01000A061A169BF
:102280007047A06B20F40020A063A06B20F4802096
:10229000704710B500F5806001F0030402689208F1
:1022A00092000260036823430129036008BF4BF6D4
:1022B000803103D0022902D141F2707141600020C7
:1022C00010BD1CB5002100F58864009122680092C1
:1022D000009820F02E0000906420009941F4807155
:1022E000216001F073F8009820F4807020600A20CB
:1022F00001F06CF8002016BD18B5002300F58860C9
:10230000009304680094009A22F02E020092009A32
:10231000D30407D4012905D1009941F4805101600B
:10232000009807E0009AD30404D519B9009921F464
:1023300080510160002012BD81B0002100F588604D
:102340000091026800920098C0F3414001B07047CC
:1023500000F58060806880B2704700002DE9F84188
:1023600000EB4116089D06F5A0664FF0FF37032DE0
:102370004FF00008B76022D8DFE805F00217020E20
:1023800040F29D44F46014060BD4C46BE40518D5E8
:10239000F46844F0600410E040F29D64F4601406B8
:1023A0000FD5F46844F4807407E040F22524F4600B
:1023B000140606D5F46844F4C074F46001E04FF0EC
:1023C000010800F580670124D7F818C001F00F015B
:1023D00004FA01F141EA0C01B961816941F000712F
:1023E0008161100607984CBF4FF40041002102287C
:1023F0000CBF4FF4003C4FF0000C9B05D202099833
:1024000003F0FE5302F4F042AF041A4307F44027EE
:102410003A43C0F30A0002430A434CEA0202032D86
:10242000326003D1306840F0005030604046BDE873
:10243000F2810000F8B54C78C36B00EB4416DF0561
:1024400006F5A06612D50B7983B9130006D14B7936
:10245000012B0BD1214600F0CEF881E0012A05D1F5
:10246000F36823F06003F36000244C710B696BB1D7
:102470000C89E3185B1EB3FBF4F7BFB2B7F5807F9E
:1024800005DD24024FF480770C6100E00127CB7852
:1024900013B10B897B430B6100F580650B695D4CC3
:1024A000C3F3120304EAC7448F7A7F07234307F07C
:1024B000C0473B43336113001CBFCB687361AB68FB
:1024C000DC07346824F0005434604CBF00234FF024
:1024D00000533768554C3B433360336823602368AF
:1024E00023F080432360CB7823B1276847F400476B
:1024F000276003E0236823F400432360002A276851
:1025000047F0004727602368336004BFCA78002A79
:1025100026D10A6922B3CB79032B19D8DFE803F05F
:10252000020D020DC46AD21CA4B29203B4EB124F86
:102530000ED2826942F0200209E02B69D21C9BB2C4
:102540009203B3EB124F03D2826942F08062826140
:10255000002200924A780B69C9689BB2FFF7DCFD44
:102560000020F2BD00F58060406980B270470246ED
:1025700010B502EB411303F5A0631868C0F3814165
:10258000002918BF022940F2E93015D1196841F03D
:1025900080411960D26A12F47F0F08D100F01EF852
:1025A000401E02D019680029FAD4002010BD186816
:1025B00040F000401860F8E7196841F08041196068
:1025C00002F58064216911F47F0FF0D100F006F864
:1025D000401EEAD019680029FAD4E6E7196821F00C
:1025E000004119601A6842F000421A60196821F42B
:1025F00000411960704700EB411000F5A0600C49E4
:102600000161016821F0804141F00041A5E5000031
:10261000410D03000000F81F000200010003E0006C
:1026200080006000E0004000080020A3480B00206C
:102630000000088070B504461021A26852085200BC
:10264000A2600025FFF74CFD2046FFF758FD002053
:1026500000F02AF80A6822F0802242F08042102816
:102660000A60F5D3002004EB401101F5A0610A686F
:1026700022F4004242F040420A6040F2E9326D1C0E
:10268000954202D20B68002BF9D4401C1028EAD3E3
:1026900004F580664FF0FF3070616061A06840F023
:1026A0000100A060002070BD04EB401101F5A061A5
:1026B000401C70474AB1000011F8013B521E00F85F
:1026C000013B1CBF11F8013BF8E77047002200F006
:1026D00091BE00002DE9F84F0D4600266E496F4A65
:1026E0000F23044601202F68B04000EA0708804508
:1026F00040F0C1804FEA460C032707FA0CF76FEA57
:10270000070E6F68012F18BF022F03D0112F18BFBB
:10271000122F12D1A768D5F80C900EEA070709FA14
:102720000CF949EA0707A760676827EA00006F68A5
:10273000C7F30017B74038436060E068AF680EEA3F
:10274000000007FA0CF73843E060B0006F68022F12
:1027500018BF122F12D1F70804EB870700F01C09ED
:10276000D7F820A003FA09FB2AEA0B0AD5F810B023
:102770000BFA09F949EA0A09C7F8209027680EEA16
:10278000070E2F7907F0030707FA0CF747EA0E0741
:1027900027606F68FF006ED5002700974FEA960C00
:1027A000176847F48047176000F00C00176807F4BB
:1027B0008047009703FA00FE009F394F57F82C70AE
:1027C00027EA0E0E374FBC4208BF002722D0364FF3
:1027D000BC4208BF01271DD0344FBC4208BF0227AE
:1027E00018D0334FBC4208BF032713D0314FBC422F
:1027F00008BF04270ED0304FBC4208BF052709D0C0
:102800002E4FBC4208BF062704D02D4FBC420CBF40
:102810000727082707FA00F0214F40EA0E0047F883
:102820002C006FEA08000F6800EA070C6F68FF03CE
:1028300048BF48EA0C0CC1F800C04F6800EA070C1A
:102840006F68BF0348BF48EA0C0CC1F804C08F682A
:1028500000EA070C6F68FF0248BF48EA0C0CC1F899
:1028600008C0CF6800EA070C6868800248BF48EAE1
:102870000C0CC1F80CC0761C0F2E7FF633AFBDE8F0
:10288000F18F02B909048161704742690A408A42A6
:1028900008BF090481617047003C01404438024090
:1028A00008380140000002400004024000080240D5
:1028B000000C0240001002400014024000180240C8
:1028C000001C02400901020002D4294881547047CB
:1028D000284B02F00F021A4402F8041C7047264BE2
:1028E00019684FF6FF020002114000F4E06008434F
:1028F000224908431860704770B51F4B1C68C4F329
:1029000002230124C3F10705052D2EBF0F2504FA6C
:1029100005F56D1E1E1D072E34BF0023DB1E29404A
:10292000994004FA03F3BDE870405B1E1A4011435E
:10293000C8E7010007D4012200F01F01104B8A40B4
:10294000400943F82020704710B5401EB0F1807F49
:1029500001D3012010BD0B4C60600F214FF0FF3000
:10296000FFF7B0FF0021A16007202060002010BD0C
:1029700000E400E018ED00E00CED00E00000FA05D6
:1029800000E100E010E000E0F8B504000E4601D1DF
:102990000220F2BD04F5737504F548772A70002013
:1029A000F8653866204600F00DF80020F8703870A1
:1029B0007870B870310018BFAE602046FFF78DFA0E
:1029C0000020F2BD10B504463C2104F56170FFF70C
:1029D0007DFE4FF4007104F58E70FFF777FE002046
:1029E000207001226070A270C4F8C40322764020D7
:1029F000A071002104F54770617600220121027068
:102A00004170C2708270002010BD10B503460020D6
:102A100051B1D3F880233AB9012403EB8202C3F801
:102A20008043C2F8781310BD022010BD10B50246D5
:102A300002F549720020147EA14201D2117010BD2E
:102A4000022010BDF0B50024E5B21A2675430544F6
:102A500005F242356F798F4218BFFF2909D1AE794F
:102A6000964218BFFF2A04D1ED799D4218BFFF2B73
:102A700005D0641CE5B2022DE6D3FF20F0BDE0B224
:102A8000F0BD10B50446FFF755FA01212046FFF7C7
:102A9000A7FA002010BD00007FB5044602208DF883
:102AA000000004F5477504F23D326879012804BF3F
:102AB0000321217021780B2904F55E761BD8DFE80D
:102AC00011F00C001B00360052016F015D00360151
:102AD00002010A0112011F014C01287900280AD0C5
:102AE00001212170C820FFF795FA2046FFF73EFA32
:102AF00000202870306553E1E879012803D10021D6
:102B0000E970022027E1306D40F2E931884208D3B4
:102B1000E878401CE870C0B2042880F01B810021D6
:102B200016E10A3030650A20FFF774FA38E1F26DD9
:102B300012B10421204690476420FFF76BFA20462B
:102B4000FFF706FA6870002105202070204600F08B
:102B50007DFC60718021204600F078FC0146A07960
:102B6000217100220290019280226B78009320460E
:102B70002B7800F058FC00F020F911E16078012674
:102B8000072804F58E720ED8DFE800F06A53392B5F
:102B900024190E04A97E29B100F005F9002818BFF8
:102BA000032800D100267FE0697E31B100F0FBF8F8
:102BB00008B1032878D1072041E0072137E0297EBA
:102BC00031B100F0F0F808B103286DD1062036E0ED
:102BD00006212CE0E98B204600F09BFC40B9052043
:102BE0002DE00921204600F094FC08B9042026E0DD
:102BF000032859D100F0DBF82AD30D2053E001213E
:102C0000204600F04AFD68B90220FFF703FA2E7053
:102C10000321A079617002900021019101236A785B
:102C200000922BE003283FD10D202070002161701D
:102C30003AE01221204600F031FC10B90220607009
:102C400032E0032830D100F0B2F828BF0D202AD29C
:102C500000F0F2F8217900F0F0F80020607022E036
:102C60000821204600F01AFC80B9687CA0716670CB
:102C7000029000200190697800912B7821798022C0
:102C8000204600F0D0FB00F098F80DE003280BD1AF
:102C900000F08DF828BF0D2005D200F0CDF8217985
:102CA00000F0CBF8002020708DF800609DF8000047
:102CB000002875D10021E87E2972012808BF08216B
:102CC00046D0072047E0F26D002A69D00121204656
:102CD000904708203FE01178204600F0E9FC0028EA
:102CE0005ED1092037E09178880607D5012120467A
:102CF00000F0EBFC002853D10A202CE00A2127E049
:102D0000B06800284CD0002171603168927A08794F
:102D100090421CD17160D1B1896820468847C8B9FA
:102D2000062020700321F26D2046904738E071683C
:102D300081B10969204688478DF800009DF80000A0
:102D400008B90B2104E09DF80000022828D10D21CC
:102D5000217025E00D20207022E0716801B34969DF
:102D6000204688471CE0002068712046FFF72AFEB5
:102D7000716821B1C9682046884700207060F26DF3
:102D800012B1052120469047A879012805D10021DC
:102D9000A9712046FFF775FE02E02046FFF7CAF84A
:102DA000002004B070BDFF23204600F035BCA87899
:102DB000401CA870C0B204287047A079029000217E
:102DC000019120466A7800922B786179002200F008
:102DD0002ABBC0F8C413704700F55F718A6C521C9F
:102DE0008A6403780B2B04D1096800291CBF896908
:102DF00008477047012100E0002180F82313704745
:102E000000F548700121017000224270827000209C
:102E1000704710B5044604F5487001214170002246
:102E20000270C2702046FFF78DF8217900F005F896
:102E300000F002F8002010BD6179204600F022BBAE
:102E40002DE9F8438CB000F035FD00F02DFA142286
:102E500000F026FA0020059043F60869DFF8FC042C
:102E6000DFF8FC840168DFF8FC44DFF8FC54DFF88D
:102E7000FC7441F0100101604FF21006026802F08C
:102E800010020592002200F0FDF943F004030360F4
:102E9000016801F0040100F0F4F943F080030360DD
:102EA000016801F0800100F0ECF943F001030360D8
:102EB000016801F0010100F0E4F943F0020303604E
:102EC000016801F0020105910599059249460368E0
:102ED00043F008030360006800F0080005900598BF
:102EE0004046FFF7CEFC012201212046FFF7C9FC36
:102EF00000224FF480512846FFF7C3FC00223146E0
:102F00003846FFF7BEFC0121019100F0BFF9CDF872
:102F1000009069464046FFF7DDFB012100910191D9
:102F2000204600210291039100F0A8F900F0AEF9CB
:102F3000082000F090F92046FFF7CCFB012000901C
:102F40000221DFF82C44DFF82C040194029100F0F8
:102F500095F904200021009001910291284600F08B
:102F60008DF94FF4806000F091F900F074F9284673
:102F7000FFF7B0FB4FF48051009101220021029134
:102F80000391019269462846FFF7A4FB01200190B6
:102F900000F07CF9009669463846FFF79BFB20203D
:102FA0000021009001910291384600F067F902215A
:102FB0000091019400210291404600F05FF900F079
:102FC00069F900F06CF9DFF8B083EC48C8F800004C
:102FD0004FF00071C8F808100120C8F81000002157
:102FE00088F81810C8F82C1008F13009002088F86B
:102FF0002000C8F80C00012189F80000C8F814006E
:103000004FF48035DE4EDF4FC8F81C10C8F804506E
:10301000C8F82860404600F067FC0120089009903D
:1030200000220A9208A9404600F012FD012000216A
:10303000009001900222029107918DF815108DF8F1
:1030400014000391049206976946404600F032FE50
:103050000221009101914046694600F02BFE00F0EC
:1030600019F900F01CF9C848C9F81800002101201E
:1030700008F16004C9F81C50C9F82010C9F82800EC
:1030800021700020207260612661C9F824000121AE
:1030900061602076C9F82C0008F1480000F024FC9B
:1030A000082000F0E4F808F1480000F0D1FC01210C
:1030B00001910222049208200021009002910791C0
:1030C0008DF81510012203918DF81420069700F059
:1030D000C9F8092100910222019200F0C3F800F022
:1030E000D9F800F0DCF8A948206365630021A163EA
:1030F00001202064012208F1A800017001724161E1
:103100000661E16342600176616408F1900528463A
:1031100000F0EAFB0B2000F0AAF8284600F098FC2B
:103120000B2100910122019202210491002201232E
:10313000029207928DF815208DF8143003920697AD
:103140006946284600F0B6FD0C210091022201924A
:103150006946284600F0AEFD08F1D8058C488D4937
:10316000E86529660020686600214FF48040E86623
:10317000A96629676967A967E96708F59A7000F089
:1031800069FE08F5C476844830604FF4007700216A
:1031900000207760B160F060B061F061306237614B
:1031A00030467E49716108F5E87400F0FBFE7C480A
:1031B00068604FF482710020E86028616861A8614E
:1031C00028626862A862E862A9600A202863EF6149
:1031D00008F1DC0001F022F8082200F061F808F59F
:1031E00004777048386041F2670163200022F8607C
:1031F0007960BA60BA61384601F052F80021009156
:1032000001913846694601F095F901F0D9F94FF47A
:103210006121F1640C216448B064F16500203065DF
:103220007065B06530664FF400417166204601F06C
:10323000FBF901E001F051F801F0DDF90A23012268
:103240002946204601F080FA287800283846F1D037
:1032500001F033F8F0E70221009001910522049279
:1032600069467047694608F1480000F023BD012116
:103270000890099100220A9208A970476946FFF751
:1032800029BA0591059905920368704700220292B8
:10329000039270471022002108A801F061BC20228F
:1032A0000021684601F05CBC80B596B03022002158
:1032B0000AA801F055FC1422002105A801F050FCD9
:1032C0001022002101A801F04BFC002000904FF4D7
:1032D00080333648016841F0805101600021006868
:1032E00000F080500090009831480091026842F44C
:1032F000804202600122006800F4804000900AA829
:1033000000990A9202214FF4800210911192082133
:103310004FF4A87212911392022107220B93149179
:10332000159201F027FC02210691002207920F203E
:103330004FF4A051059008914FF480520992052155
:1033400005A801F09FFD01200190C02102220291F9
:10335000039201A801F06CFE17B000BD30380240A6
:10336000001002400008024000040240000C02402D
:103370000000121000000240080700200020014059
:103380000100000F01000F00002101400022014058
:1033900000540040A0860100003C0040007701007E
:1033A000003001400010004000480040403802401A
:1033B0000070004070470000421E9241D20F012170
:1033C0000148FFF75EBA00BF0008024038B5044666
:1033D00001F0E8FE14F1010F054602D0044801781F
:1033E000641801F0DFFE401BA042FAD331BD00BFDC
:1033F0000000002000B500BF130096469446103927
:1034000028BFA0E80C50FAD85FEA417C28BF0CC066
:1034100048BF40F8042BC90728BF20F8022B48BF3B
:1034200000F8012B00BD3EB5BDF820409DF81C50B2
:10343000029401959DF818400094FEF7A1FD00202C
:103440003EBD80B5FEF7ADFD002002BD70B5002386
:1034500000F56174D8B254F820502E0406D55B1CD8
:10346000D8B20B28F6D34FF6FF7009E04FF6FF7283
:10347000904205D041F4004100F00F0344F82310BE
:10348000C0B270BD0B2907D200EB8100D0F88413C5
:10349000C1F30E01C0F88413002070477CB50646C6
:1034A0000C4606F58E7500942B464FF48072002171
:1034B00000F0D8F801002BD106F226312A780A70E4
:1034C000092C6B784B70AA78EB7842EA03224A8089
:1034D0002A790A716B794B71AA798A71EB79CB7170
:1034E00016D32A7A6B7A42EA03220A81EB7AAA7A05
:1034F00042EA03224A816B7B2A7B42EA03228A81C9
:10350000AA7B8A73EB7BCB732A7C0A746B7C4B742B
:1035100076BD2DE9FC4780460C46009408F11C035B
:103520004FF40072002100F09DF85FEA000970D1AD
:1035300008F54E7798F81C103970002698F81D2071
:103540007A700A2C98F81E1098F81F2041EA022180
:10355000798008F11C0098F82010397108F12101D8
:103560000A787A714B78BB718A78FA71C9783972A6
:103570004FD30921ADF80010BDF800107A889142B0
:1035800047D2694600F0B7F8417804293FD11A22A2
:10359000724308EB020A0AF24234017821700025D6
:1035A000427862708178A170C278E27001792171ED
:1035B000427962718179A171C279E271017A2172D5
:1035C0001AE0694600F097F84178052914D1E9B26C
:1035D0000AEBC10202F5537103780B706D1C42783F
:1035E0004A7083788B70C278CA700379427943EA53
:1035F00002238B8082798A71E9B2227991423EBF9F
:10360000BDF800107A889142DBD3761CF6B2022E08
:10361000B2D34846BDE8F687F8B504461546009390
:103620001E4604F58E7741F440723B46002100F0BF
:1036300019F8010004BF7978032912D139788B1E5B
:103640009E4224BF8E1EB6B2002106E06218891C7D
:1036500092F81E2105F8012B89B2B142F6DB002158
:103660002970F2BD38B585781446049A012D10D121
:1036700041F08001017444820621417404F47F44C6
:10368000B4F5407F07BF40F2094181820024848263
:10369000C2821946BDE8384034E08278012A06D15A
:1036A000002305220374427441828382C38209E0AD
:1036B0008278012A06D100230922037442744182D0
:1036C0008382C382002200211CE08278012A06D175
:1036D000002303220374427441828382C382F1E790
:1036E0008278012A06D102230374427400234382A4
:1036F0008182C382E6E70A880378D3180B800178B9
:10370000084470477CB505460124A878012802D0FA
:10371000022806D0C7E0A960AA8102212876A970F4
:10372000C1E0287E401E0A2805F571760FD8DFE833
:1037300000F0A5897F72675248382D200600687E08
:10374000401C6876C0B2032802D22C76AC709DE093
:103750003269062128469047002068762846697914
:10376000FFF790FE29792846FFF78CFE002028708D
:1037700044E000F09AF8012802D100240D2084E0F2
:10378000022808BF0920FAD0042874E0009400221F
:103790006B790021284601F016FD3068E8810A2186
:1037A00064E0297900F082F8012803D10D20287601
:1037B00000246BE0042808BF0B2066D0052865D1E3
:1037C00032E02B7900220021284601F002FD30680A
:1037D000E88108214AE000F068F8012808BF0720C6
:1037E00053D0052802D10C2028761DE0022808BFFE
:1037F00005204AD0042849D10B202876022445E030
:1038000000946B79AA89A968284601F0DCFC30682D
:10381000E88106212AE0297900F048F8012808BF4C
:10382000092032D0052801D103242FE0042822E00A
:1038300031682B79AA89E9812846A96801F0C9FC79
:10384000042022E000F031F8012811D1297CE88A17
:1038500001F0800128B1802908BF032015D005217F
:1038600004E0802908BF09200FD0072129760DE048
:10387000042818BF022809D10B2006E06A7905F157
:103880001001284601F094FC02202876002C18BF75
:10389000032C04D101200021A870297603E0022C1A
:1038A00004BF0120A870204676BD69792846FEF73E
:1038B00093BB000080B50B48016841F400710160C2
:1038C000026842F480620260016841F48071016024
:1038D0000320FFF704F8002001F0ACFC01F0CAFC63
:1038E000002002BD003C024070B5044600250CB922
:1038F000012070BD04F13006306920B9204601F086
:10390000D6FC756135733069C10600F1928030696B
:10391000DFF8741220F4885040F00200306108682B
:1039200020F4403008600A68606802430A6020683A
:10393000416821F48071416020684168226941EA50
:10394000022141602068416821F040714160216896
:103950004A68A06802434A602068816821F40061D7
:10396000816021688A68E06802438A602068A16AF1
:10397000DFF818229142816821F0706181600CD0DB
:1039800021688A68A06A02438A6000F05BF82168B7
:103990008A68E06A02438A6001E000F053F8206818
:1039A000816821F0020100F049F8227E41EA4201DB
:1039B000816094F820002168002848680FD040F406
:1039C000006048602068416821F4604141602068DF
:1039D0004168626A521E41EA4231416002E020F4CD
:1039E000006048602068C16A21F47001C1622068EB
:1039F000C16AE269521E41EA0251C16220688168CF
:103A000021F4007100F01AF8327841EA422100F006
:103A100015F821F4806100F011F8626941EA822111
:103A200081607561316921F0020141F0010131616C
:103A300000E0012500203073284670BD81602068B9
:103A4000816870472068816821F04051816070472B
:103A500078B502460020009092F83C30012B01D14D
:103A6000022072BD012082F83C0007240B68106818
:103A70000A2B12D30A3BC56803EB43039C4025EA9B
:103A80000404C460C3680D688C68A5F10A0606EBDF
:103A90004606B4402343C3600FE0056903EB4303CC
:103AA00004FA03F325EA0303036103690D688C68D4
:103AB00005EB4505AC40234303611F244B68072BEE
:103AC0000CD25B1E456B00F050F84463436B4D68AD
:103AD0000C886E1E00F044F843631BE00D2B0CD2E3
:103AE000DB1F056B00F041F80463036B4D680C8825
:103AF000EE1F00F035F803630CE00D3BC56A00F0E3
:103B000034F8C462C36A4D680C88A5F10D0600F054
:103B100027F8C3621E4B98421DD10C681A48122C1C
:103B200003D1036843F4800303600B68102B18BFB4
:103B3000112B10D1036843F40003036008681028B8
:103B400009D11549134C0B68B3FBF4F40A20444324
:103B5000009400F010F8002182F83C10002072BDA3
:103B600006EB8606B4402343704703EB83039C4077
:103B700025EA0404704702E00098401E0090009877
:103B80000028F9D170470000042301400100000F14
:103B90000020014040420F004800002078B500F0AE
:103BA00038F801D1022072BD00F04AF81DD500F0AE
:103BB0001EF858BF986018706FF00401216000F083
:103BC00020F80CD112F4401F4A6808BF012060B1F0
:103BD00050050AD48A6842F480028A6005E012F433
:103BE000401F08BF012000F01CF8002072BD5E6875
:103BF000DFF844120E4046F480565E605968CD05E9
:103C000070471168DFF8342213688A6813F01F0FB9
:103C100070470246002002F13C0300901978012908
:103C20007047DFF81C324A68994208D138B1500514
:103C300005D4DFF81002016841F48001016070478B
:103C40000121197011688C68E50714D48C68DFF8BD
:103C5000F85144F001048C60DFF8F0110C68B4FBFB
:103C6000F5F505EB4505009502E00099491E009128
:103C700000990029F9D11468A168CD0770470000A8
:103C800081B000220092491E02686FF004000329EF
:103C900010600CD8DFE801F009070502916C009173
:103CA00005E0506C02E0106C00E0D06B00900098D2
:103CB00001B0704770B590F83C20012A01D1022074
:103CC00070BD012280F83C2007240A6803680A2A94
:103CD00012D30A3ADD6802EB4202944025EA04045A
:103CE000DC60DA680D688C68A5F10A0606EB46060A
:103CF000B4402243DA600FE01D6902EB420204FA8D
:103D000002F225EA02021A611A690D688C6805EB55
:103D10004505AC4022431A611F259A6B22F44012DC
:103D20009A639A6B0C69641E42EA04529A639C6B14
:103D30004E680A6900F079F8AC439C639C6B4E684E
:103D40000A690D8800F071F82C439C638A69404C25
:103D5000A2429A6822F470229A600CD09C688A6908
:103D600014439C609C6824F440149C609C68CA695D
:103D700014439C6003E09A6822F440129A604A7DE2
:103D8000002A5A6814BF42F4806222F480625A60AA
:103D90000A7D002A5A6814BF42F4805222F48052ED
:103DA0005A604A68012A04D01ED3032A13D009D3CB
:103DB0001AE05C69240B24035C615C69CA681443E3
:103DC0005C6119E09A69120B12039A619C69CA68D6
:103DD00014439C6110E0DA69120B1203DA61DC69AA
:103DE000CA681443DC6107E01A6A120B12031A62F4
:103DF0001C6ACA6814431C62114CA34210D10B68A0
:103E00000E4A122B03D1146844F48004146009682C
:103E1000102918BF112903D1116841F40001116064
:103E2000002280F83C20002070BDF61CB61A06EB7C
:103E30008606B54070470000FEDFFFFF0423014007
:103E4000002001400820014040420F0048000020AF
:103E500001000F00F8B5040025D004F13C05697895
:103E600021B900202870204601F08DFA24216970C4
:103E7000206802685208520002602068016841F41C
:103E8000004101602068026822F40042026001F0F3
:103E90007FF801466068DFF8F420904205D2DFF831
:103EA000F030994205D20120F2BDDFF8E8008142EE
:103EB000F9D32068DFF8E0304668B1FBF3F3B609C8
:103EC00043EA861646602668376A6068904206D3E1
:103ED0004FF4967043434FF47A70B3FBF0F35B1CDE
:103EE000BF0943EA87133362491E2368DE696768A6
:103EF000974206D27F0000F043F8042913D2042130
:103F000011E0A06820B907EB470700F039F805E099
:103F10001920474300F034F841F4804108050CBFF4
:103F2000012141F40041DFF8740006400E43DE61D8
:103F300022681368E169206A23F0C0030B4303433E
:103F400013602268DFF85800936821690340E06835
:103F50000B43034393602168CA68A3696069120A2E
:103F6000034343EA0222CA602068016841F001016C
:103F7000016000206860202169702063A870F2BD94
:103F8000B1FBF7F1491CC1F30B017047A186010099
:103F900080841E0000093D0040420F000030FFFFFA
:103FA000007CFFFFF8B5040053D004F140056878A9
:103FB00038B9002129700FF25D106063204601F0CE
:103FC00014FA02206870DFF838612068C169314056
:103FD000C1610220226810626069022830D0E06866
:103FE0000028A0680CBF10272027212838BF7F0099
:103FF000012001F0A1F8014620690A22B0F5007FF6
:104000000ED16369E06820B1BF00B1FBF7F14A430C
:1040100003E0FF00B1FBF7F04243B2FBF3F005E031
:10402000B1FBF7F042436069B2FBF0F0401D0A219A
:10403000B0FBF1F101F00100091A4908000201E0AA
:10404000022100208A1EFE2A05D3686840F0100075
:1040500068600120F2BD01432069226801431162BA
:104060002268D3696168A06833400B43E168034369
:10407000A0690B43034343F40063D361206A012822
:1040800038D1DFF88010DFF88070DFF88020DFF8AB
:10409000803061632068B8420CBF18461046016842
:1040A0000E4006602668BE420CBF181D101D02217E
:1040B00001602668BE420CBF18461046D0F800C00A
:1040C0006068A168B0F5007F16BF00284FF4807EBD
:1040D0004FF0000EE06841EA0E010843A169084371
:1040E00040F4006080B2BE4240EA0C0008BF1A46AD
:1040F00080B210600020686001216970F2BD00008C
:1041000040F0FFFF855D0008003800401C40004083
:104110001C3400401CB5044620688168009194F866
:104120004120042A32D10099CA0712D541684A06B3
:104130000FD5C06800F069F8608E50B920684168FA
:1041400021F060014160012284F84120204601F005
:104150002BFA0098410619D5206841688A0615D5C2
:10416000416821F060014160002001902168CA6827
:104170000192896801910121019884F84110606CD5
:1041800040F002006064204601F00FFA94F841000C
:10419000032839D10098810719D5206841680A069B
:1041A00015D5616A0A88C260606A811C6162608D8F
:1041B000411E6185608D50B92068416821F0A001E1
:1041C0004160012084F84100204601F0EFF9009899
:1041D000010719D5206841688A0615D5416821F084
:1041E000A0014160002000902168886800900120B3
:1041F000009984F841002046616C41F0040161643B
:10420000BDE8164001F0D1B913BDE16A0880E06A4B
:10421000821CE262608E411E6186704738B50400E0
:1042200001D1012032BD0020A06204F15005687860
:1042300020B900212970204601F017F9022068708A
:1042400000F027F86268A168E06823680A432169E2
:10425000024360690A43A169024301F40071E06905
:104260000A43216A0243A06A0A4302431A60A16911
:10427000606A2268090C01F0040101435160206862
:10428000C16921F40061C161002068600121697089
:1042900032BD2068016821F04001016070470000D4
:1042A00038B5040001D1012032BD00F039F818B949
:1042B00000F032F801F00BF924E00068C16841F029
:1042C0000101C160816801F00701062903D001687E
:1042D00041F001010160002070470068C168490891
:1042E0004900C16041F21112016A114202BF016A24
:1042F00040F24442114203D101684908490001607B
:104300000020704702206870211D206800F0B0F87E
:1043100001206870002032BD0021297020467047BE
:1043200004F13C056878704710B5044620680169BF
:104330008A0715D5C1688A0712D56FF0020101619D
:1043400001222277806910F0030F204602D001F08D
:104350002EF903E001F02CF900F087F80020207717
:10436000206801694A0715D5C1684A0712D56FF060
:104370000401016102222277806910F4407F204607
:1043800002D001F014F903E001F012F900F06DF829
:1043900000202077206801690A0715D5C1680A073F
:1043A00012D56FF00801016104222277C06910F074
:1043B000030F204602D001F0FAF803E001F0F8F80C
:1043C00000F053F80020207720680169CA0615D54F
:1043D000C168CA0612D56FF0100101610822227768
:1043E000C06910F4407F204602D001F0E0F803E0FD
:1043F00001F0DEF800F039F800202077206801692C
:10440000CA0708D5C168CA0705D56FF00101016167
:10441000204601F0CEF8206801690A0608D5C16877
:104420000A0605D56FF080010161204601F0C2F84F
:10443000206801694A0608D5C1684A0605D56FF0AB
:1044400040010161204601F0B6F8206801698A0642
:104450000AD5C1688A0607D56FF0200101612046A0
:10446000BDE8104001F0A8B810BD204601F0A5B885
:10447000F0B5254C0568254B254E264FDFF898C032
:10448000A04218BFB0F1804F07D0604518BFB842B6
:1044900003D0B04218BF98420DD14A6825F070058C
:1044A0001543A04218BFB0F1804F17D060451CBF24
:1044B000B842B04212D098421CBF184A90420DD068
:1044C000174EB0421CBF174A904207D0164EB0425A
:1044D0001FBF164A9042164EB04203D1CA6825F457
:1044E000407515434A6925F0800515430560A042D3
:1044F0008D68C5620A68826212BF984209690163C9
:1045000001224261F0BD00000000014000040140B2
:10451000000C004000080040000400400040014042
:10452000004401400048014000180040001C0040C9
:104530000020004070B500F13C031A78012A01D137
:10454000022070BD01221A7002245C7005686E683A
:10455000AC680A6826F0700616436E60026811485F
:10456000824218BFB2F1804F11D00F4882421CBF67
:104570000E4DAA420BD00E4882421CBF0D4DAA42DE
:1045800005D00D4882421CBF0C4DAA4204D1486898
:1045900024F08004044394600121597000201870B5
:1045A00070BD000000000140000400400008004011
:1045B000000C004000040140004001400018004091
:1045C00010B5164C0FF2350101222046FEF7DCF93A
:1045D00008B1FEF7EFFE12492046FEF716FA08B1C1
:1045E000FEF7E8FE2046FEF74CFA18B1BDE8104091
:1045F000FEF7E0BE10BD0948FEF74EBA0229094891
:1046000005D0042906D0052906D1032103E00222A2
:104610000270704701210170704700006C0000209B
:104620004C000020500B002038B5040001D10120BF
:1046300032BD00F021F808B900F022F800F012F8BD
:1046400000F023F8FFE7416100F001F832BD206877
:10465000C16841F40051C160002068602021697088
:10466000A9707047242068702068C16821F4005147
:10467000C160204600F001BA04F13805687870473F
:1046800000212970204600F03DBF2068016921F417
:10469000904101612068416921F02A0170472DE9AC
:1046A000F843054605F138070C4678782028164669
:1046B000984646D1002C14BF002E012042D03878F5
:1046C00001283ED0012139700020786021227A70C3
:1046D00000F068FD8146AE84EE840020387003E06F
:1046E0002A6814F8011B5160E88CE0B1E88C411E87
:1046F000E9844B46A868CDF80080B0F5805F0DD105
:1047000000F079F8B8B920882968C0F3080048603B
:104710002869002814BF641CA41CE5E700F06BF8AE
:104720000028DDD007E0CDF800804B460022402174
:1047300000F063F808B1032004E020207870002026
:1047400000E00220BDE8F2832DE9F843054605F1BB
:1047500038070C46B87820281646994648D1002CD0
:1047600014BF002E012044D03878012840D0012108
:104770003970002078602222BA7000F013FD804664
:10478000AE85EE8500203870E88D70B3E88D411E4F
:10479000E9854346A868CDF80090B0F5805F12D156
:1047A0000022202100F029F890B928692968002802
:1047B000486819BF00F0FF0024F8010BC0F308009F
:1047C00024F8020BE0E70022202100F016F808B1DF
:1047D00003200EE0286929680028486802D104F8FF
:1047E000010BD1E700F07F00F9E72021B97000E06C
:1047F0000220BDE8F283002280212846AEE0416914
:1048000021F040014161606B704738B5044625686E
:104810002968EA686B6911F00F0007D188065FD537
:1048200093065DD52046BDE83240DDE0D80702D4CE
:1048300012F4907F54D0C80705D5D50503D5E06B99
:1048400040F00100E063480705D5DD0703D5E06BC4
:1048500040F00200E063880705D5DD0703D5E06B73
:1048600040F00400E063080707D5950601D4D80797
:1048700003D5E36B43F00803E363E06B00286CD0DF
:10488000880604D5910644BF204600F0ADF82068A4
:104890004069E16B0A0701D440061BD5204600F0B1
:1048A0008FF8206841694A060FD5FFF7A8FF60B16D
:1048B0000FF229110165606B00F080FE00284CD0DA
:1048C000606B016DBDE8344008472046BDE83240CA
:1048D00000F086BE204600F083FE0020E06331BD7C
:1048E00008062AD5130628D594F83900212834D192
:1048F000A068B0F5805F206A0BD10188C1F3080180
:10490000696020690028206A0CBF811C411C21625B
:1049100003E0411C216200786860E08C401EE08466
:1049200080B2D0B92068C16821F08001C1602068E0
:10493000C16841F04001C16031BD48060DD5510646
:104940000BD5E86820F04000E860202184F8391099
:104950002046BDE8324000F044BE31BD2DE9F041B3
:10496000069C05460E4690461F4628680168314061
:10497000B1420CBF01200020404517D114F1010FB6
:10498000F3D024B100F00EFCC01B8442EDD22868A5
:10499000C16821F4D07100F00CF805F13800202135
:1049A0004170817000210170032000E00020BDE80B
:1049B000F081C16028684169490849004161704738
:1049C0000168CA6822F49072CA6001684A69520894
:1049D00052004A61202180F83A107047806B002114
:1049E000C185C18400F0FCBD80B590F83A10222941
:1049F00041D18168B1F5805F12D101690368826A93
:104A00000029596805D1C1F308011180826A911CFF
:104A100004E001F0FF011180826A511C81620FE005
:104A200001690029816A04D14A1C826203685A68BC
:104A300005E04A1C826203685A6802F07F020A702D
:104A4000C18D491EC18589B299B90168CA6822F031
:104A50002002CA600168CA6822F48072CA600168D4
:104A60004A69520852004A61202180F83A1000F049
:104A7000B9FD002002BD022002BDD0B50646642764
:104A800032681169F06821F4405101431161192421
:104A9000D3682D48B168034030690B437169034303
:104AA000F0690B430343D3605169B06921F440714D
:104AB00001435161F36925482549B3F5004F1FD1E2
:104AC0008A4218BF824202D100F06AFA01E000F087
:104AD0005FFA0246A4FB02017268D30F520000F095
:104AE00083FD00F037F8FF0032376420B7FBF0F0A9
:104AF000420002F4F87202EB011200F007001DE020
:104B00008A4218BF824202D100F04AFA01E000F066
:104B10003FFA0246A4FB02017268930F920000F074
:104B200063FD00F017F83F0132376420B7FBF0F067
:104B300000F0F00202EB011200F00F003168801863
:104B40008860D0BD00000000F369FFFF0014014041
:104B5000001001406421B0FBF1F107FB1107704721
:104B600010B5044610460A460146204600F0C0FD36
:104B7000204610BD2DE9F843040016D02078DFF858
:104B8000F462C10713D5B06800F00C00042807D008
:104B9000B06800F00C0008283DD1706841023AD599
:104BA0003068810303D56068002800F05E812078BA
:104BB000B14F810719D5B06810F00C0F07D0B0685D
:104BC00000F00C0008285BD17068410258D43068AE
:104BD000810703D5E068012840F0478131682069EA
:104BE00021F0F80141EAC00131602178080779D548
:104BF0006069A249002868D001220A6000F0D2FA58
:104C00000546706F81076DD400F0CCFA401B022876
:104C1000F7D903202CE16068B0F5803F04D13068FB
:104C200040F48030306011E0B0F5A02F306806D13C
:104C300040F480203060316841F4803105E020F498
:104C400080303060316821F480213160606858B173
:104C500000F0A8FA054630688103A8D400F0A2FA53
:104C6000401B6528F7D3D4E700F09CFA054630686E
:104C700081039CD500F096FA401B6528F7D3C8E75E
:104C8000E068A8B10121396000F08CFA054630686F
:104C9000810705D400F086FA401B0228F7D9B8E74F
:104CA0003068216920F0F80040EAC10030609CE7DC
:104CB000386000F077FA05463168880795D500F02E
:104CC00071FA401B0228F7D9A3E7086000F06AFADE
:104CD0000546706F810705D500F064FA401B022875
:104CE000F7D996E7207841075FD5306C0025C100E1
:104CF0000AD400950125316C41F080513164306C4B
:104D000000F0805000900098DFF87481D8F800001F
:104D1000C10513D4D8F8000040F48070C8F8000032
:104D200000F040FA8146D8F80000C10506D400F032
:104D300039FAA0EB09000228F5D96AE7A068012832
:104D400005D00528306F06D140F004003067306F81
:104D500040F0010005E0400840003067306F20F06F
:104D60000400306741F28938A06860B100F01AFA97
:104D70008146306F810713D400F014FAA0EB0900CC
:104D80004045F6D345E700F00DFA8146306F8107C4
:104D900006D500F007FAA0EB09004045F6D338E746
:104DA0001DB1306C20F080503064A06900285ED0C6
:104DB000B16801F00C0108293AD002282AD100205C
:104DC000386600F0EFF905463068810105D500F03E
:104DD000E9F9401B0228F7D91BE7E069216A626AFA
:104DE0000843A16A490840EA8210491E40EA01408E
:104DF000E16A40EA016070600120386600F0D2F993
:104E000004463068810132D400F0CCF9001B02283E
:104E1000F7D9FEE60020386600F0C4F90446306891
:104E2000810124D500F0BEF9001B0228F7D9F0E675
:104E300001281AD07068E26900F48001914202BF33
:104E400000F03F01226A91420FD147F6C071626AB9
:104E50000140914202BF00F44031A26A914202BF78
:104E600000F07060E16A884201D0012000E000207B
:104E7000BDE8F2830038024000004742800E4742FE
:104E8000007000402DE9F04104000F4654D0494E17
:104E9000306800F00F00B84202D200F073F84BD136
:104EA0002068454D810712D5400703D5A96841F414
:104EB000E051A9602078010703D5A86840F460405C
:104EC000A860A968A06821F0F0010143A9602178D9
:104ED000C80729D56068012802D129688A0305E03E
:104EE000022818BF032803D129688A0103D423E0CC
:104EF00029688A0720D5A968890840EA8100A86046
:104F000000F050F98046A868616800F00C00B0EB32
:104F1000810F09D000F046F9A0EB080041F2893179
:104F20008842F0D303202BE0306800F00F00874266
:104F300004D200F027F801D0012021E020784107B9
:104F400005D5AA68E06822F4E0520243AA602178FD
:104F5000080706D5A968206921F4604141EAC0012B
:104F6000A96000F035F8AA681449154BC2F3031282
:104F7000895CC84018601348006800F05BF90020A5
:104F8000BDE8F0813770316801F00F01B942704718
:104F90000B480D4A006813680C49C3F3822206E0EF
:104FA0000748094A006813680849C3F34232895C1C
:104FB000C8407047003C02400038024020600008B2
:104FC000480000200800002008380240EC6000087B
:104FD00030B5144C606800F00C00042802D008289A
:104FE00002D01DE0104830BD226820680023410235
:104FF00002F03F0204D525680B49C5F3881003E091
:1050000020680A49C0F38810A1FB000100F0ECFA07
:105010002168C1F30141491C4900B0FBF1F030BDEA
:10502000024830BD0438024000127A000024F40027
:10503000F8B50546524C287810F0050F20D0514E97
:105040000020306000F0AEF807462168080106D560
:1050500000F0A8F8C01B0228F7D90320F2BDA96808
:10506000686800F086F8326000F09CF80646206818
:10507000010105D400F096F8801B0228F7D9ECE76F
:105080002878810756D500200090216C3E4F41F0D2
:1050900080512164206C00F08050009000983968A5
:1050A00041F48071396000F07DF806463868C1052A
:1050B00005D400F077F8801B0228F7D9CDE7206FE0
:1050C00010F440701EBFE96801F44071884219D0A5
:1050D000206F2E4901220A6000230B6020F44070EB
:1050E0002067206FC1070DD500F05CF80646206FE1
:1050F000810707D400F056F8801B41F289318842BD
:10510000F5D3AAE7E96801F44070B0F5407F07D114
:10511000A2681F4822F4F81201401143A16003E085
:10512000A06820F4F810A060206FE968C1F30B01BB
:10513000084320670020F2BD01460020012917D155
:1051400014494A68120213D40868096842024CBF25
:105150001148124801F03F01114AB0FBF1F110680B
:10516000C0F3881041431068C0F30270B1FBF0F047
:105170007047090741EA8011094801600122704720
:10518000003802406800474200700040400E47422D
:10519000FFFCFF0F0438024000127A000024F400E4
:1051A0008438024001484068704700BF000000207A
:1051B0007FB514460022019103920825002602952E
:1051C0000096002327E038B584B000F013F80023E0
:1051D00009E07FB500F025F800231BE038B584B066
:1051E00000F008F8022300222146FCF7E0FE002030
:1051F00005B030BD1C46089D90F81D3303B1002555
:105200000395029201910125009570477FB500F04A
:1052100008F8022301222146FCF7C9FE002004B051
:1052200070BD029201911C4600250126039500964F
:105230007047000038B50D4D0D4B2A7804464FF4E9
:105240007A711868B1FBF2F2B0FBF2F0FDF77CFB6B
:1052500050B9102C08D2002221464FF0FF30FDF744
:105260004BFBAC60002032BD012032BD00000020AD
:105270004800002082B0002000900022DFF8F002F9
:10528000416841F480414160416801F480410091EE
:1052900000990092036843F080530360006800F0B7
:1052A000805000900098072002B0FDF718BB10B5A1
:1052B00086B000F0D4F82168DFF8B822DFF8B80231
:1052C000914217D100210091426942F480724261FB
:1052D0000022416901F4807100F04FF843F00103AE
:1052E00003600322006800F0010000900098DFF8DE
:1052F0008C0239E0DFF8882291421CD10021009114
:10530000426942F4007242610022416901F4007175
:1053100000F0D9F80321036843F00203036000683A
:1053200000F0020000900098019102910021039189
:1053300001A994481DE0944A91421CD1002100919A
:10534000426942F4806242610022416901F4806155
:1053500000F013F843F0040303600322006800F038
:105360000400009000988948019102920021039165
:1053700001A9FDF7AFF906B010BD009100990092A8
:1053800006210368704710B586B000F068F8216800
:105390007F48814222D10022774C0092122220685D
:1053A00040F002002060216801F0020100914FF4FA
:1053B000107100987348019102920121039100221B
:1053C000042100F00DF800200090216941F4001143
:1053D0002161206900F400100090009806B010BD13
:1053E0000591049201A9FDF775B910B586B000F0DA
:1053F00036F82168674881422FD100F0B4F841F4B3
:1054000000410161016901F4004100F05CF80368AA
:1054100043F001030360016801F0010100F053F85B
:105420001021036843F0040303600222006800F0C7
:10543000040000F03FF806210591FFF7D3FF00229A
:10544000039204924FF4A45002210190029106228B
:10545000059201A94D48FDF73DF906B010BD04467F
:105460001422002101A8FFF77BBB10B586B0FFF71F
:10547000F6FF2168484881421AD100223E48009236
:10548000416941F480514161416901F4805100F06A
:105490001AF8E021036843F0010303600222006868
:1054A00000F0010000F006F805210591FFF79AFFD2
:1054B00006B010BD00900098304801910292002182
:1054C0000391049170470091009900927047006821
:1054D0003249884200D0704780B5002224480092AB
:1054E000016841F0100101600021006800F0100027
:1054F000009000983620FDF7FFF9BDE80240362005
:10550000FDF717BA10B586B0FFF7A9FF2168244848
:10551000814226D100F027F841F480210161016920
:1055200001F48021FFF7CFFF4FF44071036843F08F
:10553000080303600222006800F008000090009851
:105540001848019102920021039103220721FFF7DD
:1055500047FF002200212720FDF7CEF92720FDF785
:10556000E8F906B010BD00220348009201697047B7
:105570004038024000200140303802400000024024
:1055800000210140000402400022014000080240C6
:1055900000540040003C004000300140001000403A
:1055A00000480040000C0240704770477047704749
:1055B00070477047704770477047704790F83510D4
:1055C000022903D08022426501207047052180F81E
:1055D00035100068026852085200026000207047CF
:1055E0007047704770470000D3BBD9B1B2F5803F18
:1055F0005BD2022A1ED98C46B1FBF2F102FB11C329
:105600001B0443EA1043B3FBF2FC02FB1C3380B2E1
:1056100040EA0343B3FBF2F002FB103240EA0C40D5
:1056200000237047022A05D98446B0FBF2F002FB42
:1056300010C270474AB105D100F0010249085FEA83
:105640003000704700220023704700F085B80B003F
:105650000200002100207047F7D30022002370478A
:10566000904271EB030CF2D370B5B1FA81F4B3FA46
:1056700083F52C1BA340C4F1200532FA05F6334311
:10568000A2405FF00046E64002E05B085FEA3202BB
:10569000841A71EB030524BF204629467641F4D3D2
:1056A00002000B003000002170BD70B5B1FA81F42A
:1056B000B2FA82F5C4F120046419B4F12006DAD3F9
:1056C000B2405FF00044F440002502E052085FEA77
:1056D0003303C61A71EB020E24BF30467146644193
:1056E0006D41F3D302000B002000290070BD0000C3
:1056F00062F30F2262F31F42401810F0030308D038
:10570000C91A1FD3DB0748BF00F8012D28BF20F8B6
:10571000022D130030B414461546103928BF20E975
:105720003C00FAD8490728BF20E90C0048BF40F8E0
:10573000042D890028BF20F8022D48BF00F8012D54
:1057400030BC7047C91818BF00F8012DCB0728BF1F
:1057500000F8012D70470000704700002DE9FF415F
:105760000546012302220221FDF76CF90746FF2FAF
:1057700040D0022F3ED201462846FDF757F90028B7
:1057800038D15020FAF744FD05F54776316EC861EF
:10579000306EC46974B350212046FCF797FF4FF078
:1057A0001A0818FB07F7E81900F24E3001780A06CC
:1057B00002D561704088608128466178FDF746FE19
:1057C0000146217003226089029001922846737875
:1057D000009362783378FDF726FE217800F04FF8C9
:1057E000002300220A212846FDF72CF9FF2801D0CA
:1057F000022801D302203FE018FB00F0284400F209
:105800004E3001780A0603D5E1734188618302E0D6
:10581000A17341882183017A0A0603D5E173408987
:10582000608302E0A173408920832846A17BFDF7B5
:105830000DFE60732846E17BFDF708FE2073022110
:10584000208B029000F01FF8A27B617BFDF7EBFD3F
:10585000608B0290022100F016F8E27B217BFDF7BD
:10586000E2FD002084F84C000022617B00F008F883
:10587000217B00F004F8002004B0BDE8F081002294
:105880002846FCF7BABB019128467278009233781B
:10589000704738B50446D4F87C03C569297839B116
:1058A00000F0EAF829782046FDF7ECFD002028708A
:1058B000297B39B100F0E0F8297B2046FDF7E2FDB5
:1058C00000202873697B39B100F0D6F8697B204647
:1058D000FDF7D8FD00206873D4F87C03C06928B1B7
:1058E00000F0D9F8D4F87C130020C861002032BD44
:1058F00070B5044604F55F752A68D36903F1400169
:1059000000F0BDF8060003D1AA6D022120469047A1
:10591000304670BD7CB505460124D5F87C03C169CD
:1059200001F14006317B042905D8DFE801F00305C9
:1059300016359B0000249BE0B168212028742022AA
:1059400000206A746882A8820723EB820722284617
:10595000FDF7D8FEE0B9022089E03146284600F084
:105960008EF8A8B93073B06831790279914202BFDC
:10597000B179827991427BD171794279914202BFAA
:1059800031680068814273D1284600F086F86FE0E4
:1059900001286DD004206AE0C66996F84D00012800
:1059A0001FD002282BD1717B2846FCF715FB01285C
:1059B00012D1308B726A904204D2111AF2691044EB
:1059C000F06100E000210800716207D186F84D10F7
:1059D000284600F05FF812E0022810D186F84D400A
:1059E0000DE0706A328BF169737B0094824228BFAC
:1059F00082B22846FFF7F2FB022086F84D00D5F868
:105A00007C03C66996F84E00032821D004282FD1C4
:105A1000317B2846FCF7E0FA012829D1317B284662
:105A2000FCF7AAFA0146B06A401A0AD0728B8A4281
:105A300007D2B062306A08440321306286F84E1003
:105A400016E0002086F84E00284600F027F80FE008
:105A5000337B728B316A2846FFF7D8FB042086F827
:105A60004E0005E000212846FDF73AFE00B93073EC
:105A7000204676BD002070472046FDF7E2BCA122FB
:105A80000274212300224282828243740722C2824E
:105A9000FDF738BE7047FBF732BB70477047000018
:105AA0007047FEE7FEE7FEE7FEE770477047704786
:105AB00000F060B9A548FEF7A8BE00002DE9F04748
:105AC000A348DFF89082A44DDFF88092A34FA44C46
:105AD000A44EDFF894A2FEF727FC01224FF4805178
